{
  "contractName": "AppleShop",
  "abi": [
    {
      "inputs": [
        {
          "internalType": "uint256",
          "name": "appleNum",
          "type": "uint256"
        },
        {
          "internalType": "uint256",
          "name": "bananaNum",
          "type": "uint256"
        },
        {
          "internalType": "uint256",
          "name": "melonNum",
          "type": "uint256"
        }
      ],
      "name": "buyFruit",
      "outputs": [],
      "stateMutability": "payable",
      "type": "function",
      "payable": true
    },
    {
      "inputs": [
        {
          "internalType": "uint256",
          "name": "appleNum",
          "type": "uint256"
        },
        {
          "internalType": "uint256",
          "name": "bananaNum",
          "type": "uint256"
        },
        {
          "internalType": "uint256",
          "name": "melonNum",
          "type": "uint256"
        },
        {
          "internalType": "uint256",
          "name": "sell",
          "type": "uint256"
        }
      ],
      "name": "sellFruit",
      "outputs": [],
      "stateMutability": "payable",
      "type": "function",
      "payable": true
    },
    {
      "inputs": [],
      "name": "getApple",
      "outputs": [
        {
          "internalType": "uint256",
          "name": "",
          "type": "uint256"
        }
      ],
      "stateMutability": "view",
      "type": "function",
      "constant": true
    },
    {
      "inputs": [],
      "name": "getBanana",
      "outputs": [
        {
          "internalType": "uint256",
          "name": "",
          "type": "uint256"
        }
      ],
      "stateMutability": "view",
      "type": "function",
      "constant": true
    },
    {
      "inputs": [],
      "name": "getMelon",
      "outputs": [
        {
          "internalType": "uint256",
          "name": "",
          "type": "uint256"
        }
      ],
      "stateMutability": "view",
      "type": "function",
      "constant": true
    }
  ],
  "bytecode": "0x608060405234801561001057600080fd5b5061061c806100206000396000f3fe60806040526004361061004a5760003560e01c8063143fe5a51461004f578063290e50c11461007a5780632ef1f24214610096578063526bab1e146100c1578063ee8770fc146100ec575b600080fd5b34801561005b57600080fd5b50610064610108565b6040516100719190610449565b60405180910390f35b610094600480360381019061008f9190610495565b61014e565b005b3480156100a257600080fd5b506100ab610254565b6040516100b89190610449565b60405180910390f35b3480156100cd57600080fd5b506100d661029b565b6040516100e39190610449565b60405180910390f35b610106600480360381019061010191906104e8565b6102e2565b005b60008060003373ffffffffffffffffffffffffffffffffffffffff1673ffffffffffffffffffffffffffffffffffffffff16815260200190815260200160002054905090565b826000803373ffffffffffffffffffffffffffffffffffffffff1673ffffffffffffffffffffffffffffffffffffffff168152602001908152602001600020600082825461019c919061057e565b9250508190555081600160003373ffffffffffffffffffffffffffffffffffffffff1673ffffffffffffffffffffffffffffffffffffffff16815260200190815260200160002060008282546101f2919061057e565b9250508190555080600260003373ffffffffffffffffffffffffffffffffffffffff1673ffffffffffffffffffffffffffffffffffffffff1681526020019081526020016000206000828254610248919061057e565b92505081905550505050565b6000600260003373ffffffffffffffffffffffffffffffffffffffff1673ffffffffffffffffffffffffffffffffffffffff16815260200190815260200160002054905090565b6000600160003373ffffffffffffffffffffffffffffffffffffffff1673ffffffffffffffffffffffffffffffffffffffff16815260200190815260200160002054905090565b836000803373ffffffffffffffffffffffffffffffffffffffff1673ffffffffffffffffffffffffffffffffffffffff168152602001908152602001600020600082825461033091906105b2565b9250508190555082600160003373ffffffffffffffffffffffffffffffffffffffff1673ffffffffffffffffffffffffffffffffffffffff168152602001908152602001600020600082825461038691906105b2565b9250508190555081600260003373ffffffffffffffffffffffffffffffffffffffff1673ffffffffffffffffffffffffffffffffffffffff16815260200190815260200160002060008282546103dc91906105b2565b925050819055503373ffffffffffffffffffffffffffffffffffffffff166108fc829081150290604051600060405180830381858888f19350505050158015610429573d6000803e3d6000fd5b5050505050565b6000819050919050565b61044381610430565b82525050565b600060208201905061045e600083018461043a565b92915050565b600080fd5b61047281610430565b811461047d57600080fd5b50565b60008135905061048f81610469565b92915050565b6000806000606084860312156104ae576104ad610464565b5b60006104bc86828701610480565b93505060206104cd86828701610480565b92505060406104de86828701610480565b9150509250925092565b6000806000806080858703121561050257610501610464565b5b600061051087828801610480565b945050602061052187828801610480565b935050604061053287828801610480565b925050606061054387828801610480565b91505092959194509250565b7f4e487b7100000000000000000000000000000000000000000000000000000000600052601160045260246000fd5b600061058982610430565b915061059483610430565b92508282019050808211156105ac576105ab61054f565b5b92915050565b60006105bd82610430565b91506105c883610430565b92508282039050818111156105e0576105df61054f565b5b9291505056fea26469706673582212203305d9f7bf8e0a3eaca850928f194666fe73f3557181678097f3843fc1cc1f0064736f6c63430008110033",
  "immutableReferences": {},
  "source": "// SPDX-License-Identifier: MIT\r\npragma solidity ^0.8.17;\r\n\r\ncontract AppleShop {\r\n    // address , uint , myApple  \r\n    mapping(address => uint) myApple;\r\n    mapping(address => uint) myBanana;\r\n    mapping(address => uint) myMelon;\r\n\r\n    // // payable   CA ETH  .\r\n    // //   value ETH  .\r\n    // //   \r\n    // function buyApple() public payable {\r\n    //     myApple[msg.sender] += 1;\r\n    // }\r\n\r\n    //    \r\n    function buyFruit(uint appleNum, uint bananaNum, uint melonNum) public payable {\r\n        myApple[msg.sender] += appleNum;\r\n        myBanana[msg.sender] += bananaNum;\r\n        myMelon[msg.sender] += melonNum;\r\n    }\r\n    //    \r\n    function sellFruit(uint appleNum, uint bananaNum, uint melonNum, uint sell) public payable {\r\n        myApple[msg.sender] -= appleNum;\r\n        myBanana[msg.sender] -= bananaNum;\r\n        myMelon[msg.sender] -= melonNum;\r\n        payable(msg.sender).transfer(sell);\r\n    }\r\n\r\n\r\n    // //    \r\n    // function sellApple(uint applePrice) public payable {\r\n    //     uint256 refund = myApple[msg.sender] * applePrice;\r\n    //     myApple[msg.sender] = 0;\r\n    //     // payable    .\r\n    //     //     \r\n    //     //    \r\n    //     payable(msg.sender).transfer(refund);\r\n    // }\r\n\r\n\r\n    //    \r\n    function getApple() view public returns (uint){\r\n        return myApple[msg.sender];\r\n    }\r\n    //    \r\n    function getBanana() view public returns (uint){\r\n        return myBanana[msg.sender];\r\n    }\r\n    //    \r\n    function getMelon() view public returns (uint){\r\n        return myMelon[msg.sender];\r\n    }\r\n}",
  "sourcePath": "C:\\Users\\KGA_\\Desktop\\blockchain-visualcode\\20221130\\contracts\\AppleShop.sol",
  "compiler": {
    "name": "solc",
    "version": "0.8.17+commit.8df45f5f.Emscripten.clang"
  },
  "schemaVersion": "3.4.11",
  "updatedAt": "2022-11-30T10:44:45.199Z",
  "networkType": "ethereum",
  "devdoc": {
    "kind": "dev",
    "methods": {},
    "version": 1
  },
  "userdoc": {
    "kind": "user",
    "methods": {},
    "version": 1
  }
}